S01200004C6162315F5461736B322E73726563AE
S11300000C9434000C945E000C943E000C943E005E
S11300100C943E000C943E000C943E000C943E0064
S11300200C943E000C943E000C943E000C943E0054
S11300300C943E000C943E000C943E000C943E0044
S11300400C943E000C943E000C943E000C943E0034
S11300500C943E000C943E000C943E000C943E0024
S11300600C943E000C943E0011241FBECFEFD8E048
S1130070DEBFCDBF0E9452000C948D000C94000092
S113008089E697E69093850080938400109280001F
S113009085E080938100B09BFECF1092810081E0C7
S11300A086BB0895E1E6F0E080E8808381E0808308
S11300B09FEF94B91AB88DBB7894FFCF1F920F921B
S11300C00FB60F9211242F933F934F935F936F9327
S11300D07F938F939F93AF93BF93EF93FF9381E0AD
S11300E085B90E94400082E085B90E94400084E006
S11300F085B90E94400015B8FF91EF91BF91AF916F
S11301009F918F917F916F915F914F913F912F912B
S11101100F900FBE0F901F901895F894FFCF1C
S9030000FC
