:100000000C9434000C94FD000C9449000C944900AD
:100010000C9449000C9449000C9449000C9449003C
:100020000C9449000C9449000C9449000C9449002C
:100030000C9449000C9449000C9449000C9449001C
:100040000C9449000C9449000C9449000C9449000C
:100050000C9449000C9449000C9449000C944900FC
:100060000C9449000C94490011241FBECFEFD8E036
:10007000DEBFCDBF11E0A0E0B1E0EEE6F4E002C0EB
:1000800005900D92A430B107D9F70E945D000C9441
:1000900035020C9400008FE492E1909385008093E8
:1000A00084001092800085E080938100B09BFECF99
:1000B0001092810081E086BB08958FEF84B91AB851
:1000C00081E08DBB7894FFCF82E085B9089581E00F
:1000D00085B9089583E085B908958BE085B90895C1
:1000E0008DE085B908958FE085B9089515B8089514
:1000F0000E9464002FEF81EE94E0215080409040F8
:10010000E1F700C000000E9476002FEF81EE94E03E
:10011000215080409040E1F700C000000E9467003D
:100120002FEF81EE94E0215080409040E1F700C035
:1001300000000E9476002FEF81EE94E02150804075
:100140009040E1F700C000000E946A002FEF81EEAE
:1001500094E0215080409040E1F700C000000E94F0
:1001600076002FEF81EE94E0215080409040E1F73F
:1001700000C000000E946D002FEF81EE94E021503E
:1001800080409040E1F700C000000E9476002FEF11
:1001900081EE94E0215080409040E1F700C00000E3
:1001A0000E9470002FEF81EE94E02150804090403B
:1001B000E1F700C000000E9476002FEF81EE94E08E
:1001C000215080409040E1F700C000000E94730081
:1001D0002FEF81EE94E0215080409040E1F700C085
:1001E00000000E9476002FEF81EE94E021508040C5
:1001F0009040E1F700C0000008951F920F920FB6E3
:100200000F9211242F933F934F935F936F937F939C
:100210008F939F93AF93BF93EF93FF930E947800C8
:100220000E94C20166E070E00E944E010196833098
:100230009105A1F034F48130910551F0029759F005
:1002400018C08530910581F064F0069781F011C0E7
:100250000E9464000EC00E9467000BC00E946A00EA
:1002600008C00E946D0005C00E94700002C00E947C
:1002700073000E944B000E947600FF91EF91BF91A6
:10028000AF919F918F917F916F915F914F913F912E
:100290002F910F900FBE0F901F90189597FB072E70
:1002A00016F4009407D077FD09D00E94620107FC84
:1002B00005D03EF4909581959F4F08957095619576
:1002C0007F4F0895AA1BBB1B51E107C0AA1FBB1F8C
:1002D000A617B70710F0A61BB70B881F991F5A95D2
:1002E000A9F780959095BC01CD0108958F929F92BA
:1002F000AF92BF92CF92DF92EF92FF92CF93DF93B4
:10030000EC01688179818A819B8161157105810584
:10031000910521F464E279ED8BE597E02DE133EF6F
:1003200041E050E00E94D20149015A019B01AC0119
:10033000A7EAB1E40E94F1016B017C01ACEEB4EFDD
:10034000A50194010E94FF01DC01CB018C0D9D1DD4
:10035000AE1DBF1DB7FF03C00197A109B048888338
:100360009983AA83BB839F77DF91CF91FF90EF9012
:10037000DF90CF90BF90AF909F908F9008950E9494
:100380007601089580E091E00E9476010895A0E052
:10039000B0E08093000190930101A0930201B0931B
:1003A00003010895052E97FB1EF400940E94E901B5
:1003B00057FD07D00E94040207FC03D04EF40C94B2
:1003C000E90150954095309521953F4F4F4F5F4F34
:1003D000089590958095709561957F4F8F4F9F4FB1
:1003E00008950E942602A59F900DB49F900DA49F92
:1003F000800D911D11240895B7FF0C94F1010E9406
:10040000F101821B930B0895A1E21A2EAA1BBB1BBC
:10041000FD010DC0AA1FBB1FEE1FFF1FA217B307D0
:10042000E407F50720F0A21BB30BE40BF50B661FE6
:10043000771F881F991F1A9469F7609570958095AA
:1004400090959B01AC01BD01CF010895A29FB00121
:10045000B39FC001A39F700D811D1124911DB29FF8
:0E046000700D811D1124911D0895F894FFCF99
:04046E000100000089
:00000001FF
